:020000040800F2
:100000000050002059130008A9130008A913000884
:10001000A9130008A9130008A91300080000000094
:10002000000000000000000000000000A91300080C
:10003000A913000800000000A9130008A913000874
:10004000A9130008A9130008A9130008A9130008A0
:10005000A9130008A9130008A9130008A913000890
:10006000A9130008A9130008A9130008A913000880
:10007000A9130008A9130008A9130008A913000870
:10008000A9130008A9130008A9130008A913000860
:10009000A9130008A9130008A9130008A913000850
:1000A000A9130008A9130008A9130008A913000840
:1000B000A9130008A9130008A9130008A913000830
:1000C000A9130008A9130008A9130008A913000820
:1000D000A91300087D0B0008A9130008A913000844
:1000E000A9130008A913000800000000A9130008C4
:1000F000A9130008A9130008A9130008A9130008F0
:10010000A9130008A9130008A9130008A9130008DF
:10011000A9130008A9130008A9130008A9130008CF
:10012000A9130008A9130008A9130008A9130008BF
:1001300080B584B000AFF860B96011461A460B462E
:10014000FB711346BB71FB68BA681A60FB68FA79E9
:100150001A71FB68BA795A71F86800F055F8FB68B3
:1001600018461037BD4680BD80B483B000AF7860BC
:100170007B681B681E4A934206D11E4B9B691D4A31
:1001800043F0040393612EE07B681B681A4A934294
:1001900006D1184B9B69174A43F00803936122E08C
:1001A0007B681B68154A934206D1124B9B69114A22
:1001B00043F01003936116E07B681B68104A93427A
:1001C00006D10C4B9B690B4A43F0200393610AE074
:1001D0007B681B680B4A934205D1064B9B69054A15
:1001E00043F04003936100BF0C37BD4680BC7047AD
:1001F0000008014000100240000C014000100140C6
:10020000001401400018014080B584B000AF786050
:100210007868FFF7A9FF7B681B79072B07D87B68F5
:100220001B68FB607B681B799B00FB7211E07B689D
:100230001B79072B0DD97B681B790F2B09D87B689D
:100240001B680433FB607B681B79083BDBB29B00B7
:10025000FB72FB681B68FA7A0F2101FA02F2D243A3
:100260001A40FB681A60FB681B687A68527911466D
:10027000FA7A01FA02F21A43FB681A6000BF1037DB
:10028000BD4680BD80B483B000AF78607B681B79C9
:100290001A46012303FA02F27B681B681A6100BF49
:1002A0000C37BD4680BC704780B483B000AF786027
:1002B0007B681B791A46012303FA02F27B681B68EC
:1002C0005A6100BF0C37BD4680BC704780B483B014
:1002D00000AF78607B681B68DA687B681B79194619
:1002E00001238B4019467B681B684A40DA6000BFD7
:1002F0000C37BD4680BC704780B483B000AF7860D7
:100300007B681B689B687A681279114601228A40D3
:100310001340002B14BF01230023DBB218460C3717
:10032000BD4680BC704700BF80B584B000AFF860A8
:10033000B9607A60FB70FB68BA681A60FB687A681B
:100340005A60FB68FA781A72FB683A7E5A72FB6848
:100350003A7F9A72FB6897F82020DA72FB6897F868
:1003600024201A73F86800F0A7F8FB6818461037C5
:10037000BD4680BD80B483B000AF78607B681B68E9
:10038000124A934206D1124B9B69114A43F48043AF
:10039000936116E07B681B680E4A934206D10C4BB2
:1003A000DB690B4A43F40033D3610AE07B681B68C6
:1003B000094A934205D1064BDB69054A43F4802381
:1003C000D36100BF0C37BD4680BC70470038014088
:1003D00000100240004400400048004080B483B058
:1003E00000AF78602E4B9B692D4A43F00103936167
:1003F0007B681B682B4A93421ED1294B9B69284A74
:1004000043F004039361284B5B68274A23F0F00311
:100410005360254B5B68244A43F0B0035360224B82
:100420005B68214A23F4706353601F4B5B681E4A6C
:1004300043F4806353602EE07B681B681B4A934241
:1004400012D1174B9B69164A43F004039361164B74
:100450001B68154A23F47F431360134B1B68124A31
:1004600043F49643136016E07B681B68104A93427E
:1004700011D10B4B9B690A4A43F0080393610D4B62
:100480005B680C4A23F47F4353600A4B5B68094A5C
:1004900043F49643536000BF0C37BD4680BC7047A1
:1004A00000100240003801400008014000440040B4
:1004B00000480040000C014080B584B000AF786077
:1004C0007868FFF757FF7868FFF788FF7B681B683D
:1004D000824A934201D1824B00E0824BFB60F96873
:1004E000786800F001F97B681B6800229A817B68BC
:1004F0001B7A012B0AD17B681B689B899AB27B68A7
:100500001B6842F4806292B29A8119E07B681B7A80
:10051000022B0AD17B681B689B899AB27B681B6897
:1005200042F4C06292B29A810AE07B681B7A002B87
:1005300006D17B681A687B681B68928992B29A819F
:100540007B68DB7A002B0AD17B681B689B899AB297
:100550007B681B6842F0080292B29A811CE07B68BB
:10056000DB7A012B0AD17B681B689B899AB27B6876
:100570001B6842F0040292B29A810DE07B68DB7A3C
:10058000022B09D17B681B689B899AB27B681B6828
:1005900042F00C0292B29A817B681B681B8A9AB265
:1005A0007B681B6822F4405292B21A827B689B7A65
:1005B000012B0AD17B681B681B8A9AB27B681B6877
:1005C00042F4005292B21A8228E07B689B7A002B98
:1005D00007D17B681A687B681B68128A92B21A82FC
:1005E0001CE07B689B7A032B0AD17B681B681B8A03
:1005F0009AB27B681B6842F4405292B21A820DE0B4
:100600007B689B7A022B09D17B681B681B8A9AB294
:100610007B681B6842F4805292B21A827B685B7AD4
:10062000002B07D17B681A687B681B68928992B29D
:100630009A810DE07B685B7A012B09D17B681B688E
:100640009B899AB27B681B6842F4805292B29A816D
:100650007B681B7B002B07D17B681A687B681B6853
:10066000928A92B29A822BE07B681B7B032B0AD181
:100670007B681B689B8A9AB27B681B6842F4407255
:1006800092B29A821CE07B681B7B012B0AD17B68AB
:100690001B689B8A9AB27B681B6842F4807292B294
:1006A0009A820DE07B681B7B022B09D17B681B685B
:1006B0009B8A9AB27B681B6842F4007292B29A825B
:1006C0007B681B689B899AB27B681B6842F4005266
:1006D00092B29A8100BF1037BD4680BD00380140FC
:1006E00000A24A040051250290B587B000AF78609F
:1006F0003960386800F002FC04467B685B681B01C7
:10070000184600F0FBFB03461946204600F002FDA8
:1007100003467B61786900F099FD03463B613869C7
:1007200000F0ECFB03461946786900F035FB034600
:100730004FF08341184600F039FC0346184600F09C
:1007400085FD0346FB603B699BB21B0199B2FB68C8
:100750009BB203F00F039AB27B681B680A4392B204
:100760001A8100BF1C37BD4690BD80B487B000AF72
:10077000F860B9601346FB80FB685B7A012B06D1F9
:10078000FB681B7A002B02D1BB687B6101E0002370
:100790007B612AE000BFFB681B681B889BB203F0EB
:1007A0008003002B0CBF01230023DBB2002BF2D10E
:1007B0007B69002B0BD1BB681A78FB681B689A8099
:1007C000BB680133BB60FB88013BFB800DE07B69AC
:1007D0001A88FB681B68C2F3080292B29A807B6990
:1007E00002337B61FB88023BFB80FB88002BD1D16D
:1007F00000BFFB681B681B889BB203F04003002B03
:100800000CBF01230023DBB2002BF2D100BF00BFDD
:100810001C37BD4680BC704780B487B000AFF8601D
:10082000B9601346FB80FB685B7A012B06D1FB683D
:100830001B7A002B02D1BB687B6101E000237B6146
:1008400044E000BFFB681B681B889BB203F02003D9
:10085000002B0CBF01230023DBB2002BF2D17B69FC
:10086000002B24D1FB685B7A012B07D0FB685B7AF5
:10087000002B0BD1FB681B7A002B07D1FB681B6890
:100880009B889BB2DAB2BB681A7009E0FB681B68F0
:100890009B889BB2DBB203F07F03DAB2BB681A70AD
:1008A000BB680133BB60FB88013BFB800EE0FB684B
:1008B0001B689B889BB2C3F308039AB27B691A80BA
:1008C0007B6902337B61FB88023BFB80FB88002B4A
:1008D000B7D100BF00BF1C37BD4680BC704780B495
:1008E00083B000AF78600B46FB70FB78012B0AD118
:1008F0007B681B689B899AB27B681B6842F0200268
:1009000092B29A8128E0FB78002B0AD17B681B68A1
:100910009B899AB27B681B6842F0800292B29A81EE
:100920001AE0FB78022B0AD17B681B689B899AB27C
:100930007B681B6842F0A00292B29A810CE0FB78BF
:10094000032B09D17B681B689B899AB27B681B6863
:1009500042F0400292B29A817B681B680E4A934231
:1009600003D10E4B20225A6010E07B681B680C4AB2
:10097000934203D1094B40225A6007E07B681B6811
:10098000084A934202D1054B80225A6000BF0C37BF
:10099000BD4680BC704700BF0038014000E100E068
:1009A000004400400048004080B400AF00BFBD4696
:1009B00080BC704780B584B000AF00F063F8381D8C
:1009C00002230D222849FFF7B3FB01212748FFF737
:1009D00086FF3B1D1846FFF779FC254B1B78DBB2E1
:1009E000002B14BF01230023DBB2002B30D0214B9E
:1009F00000221A700DE01F4B1B78DBB25A1CD1B2DB
:100A00001C4A11701A46F9781B4B9954FB780A2B33
:100A100012D0FB1C1946194800F048FC0346002B75
:100A200006D0144B1B78DBB23F2B01D8012300E02A
:100A30000023002BDFD100E000BF0E4B1B78DBB2A0
:100A40001A460D490948FFF790FE094B00221A701B
:100A50000023FB6002E0FB680133FB60FB68084A8F
:100A60009342F8DBB5E700BF0010014044000020CE
:100A70004000002041000020000000205400002021
:100A800000DD6D0080B400AF3A4B1B68394A43F477
:100A90008033136000BF374B1B6803F40033002B17
:100AA0000CBF01230023DBB2002BF4D1314B5B6878
:100AB000304A23F0F00353602E4B5B682D4A23F439
:100AC000E06353602B4B5B682A4A43F480635360B6
:100AD000284B5B68274A23F460535360254B5B68BF
:100AE000244A23F480335360224B5B68214A43F449
:100AF000803353601F4B5B681E4A23F470135360AE
:100B00001C4B5B681B4A43F4E0135360194B1B6892
:100B1000184A43F08073136000BF164B1B6803F044
:100B20000073002B0CBF01230023DBB2002BF4D198
:100B3000104B5B680F4A23F0030353600D4B5B6857
:100B40000C4A43F00203536000BF0A4B5B6803F09A
:100B50000C03082B14BF01230023DBB2002BF4D1BC
:100B6000054B1B68044A43F00203136000BFBD46F7
:100B700080BC7047001002400020024080B582B067
:100B800000AF0F4B1B889BB203F02003002B14BF58
:100B900001230023DBB2002B0ED0094B9B889BB2B4
:100BA000FB71FB791946074800F0AAFBFB790A2B79
:100BB00002D1054B01221A7000BF0837BD4680BD27
:100BC00000380140540000204000002080B584B06F
:100BD00004AF002303930223029300230193002315
:100BE000009300234FF4E13204490548FFF79CFBD2
:100BF000044800F04BFB00BFBD4680BD00380140FB
:100C0000440000205400002080B500AFFFF7DEFF55
:100C100080BD00BF04140008000000200000002078
:100C2000000000209C0000204FF0FF0C1CEAD05276
:100C30001EBF1CEAD15392EA0C0F93EA0C0F6FD03F
:100C40001A4480EA010C400218BF5FEA41211ED01D
:100C50004FF0006343EA501043EA5111A0FB013109
:100C60000CF00040B1F5000F3EBF490041EAD371DE
:100C70005B0040EA010062F17F02FD2A1DD8B3F15A
:100C8000004F40EBC25008BF20F00100704790F0C9
:100C9000000F0CF0004C08BF49024CEA502040EA1B
:100CA00051207F3AC2BFD2F1FF0340EAC2507047E1
:100CB00040F400004FF00003013A5DDC12F1190F1F
:100CC000DCBF00F000407047C2F10002410021FA91
:100CD00002F1C2F1200200FA02FC5FEA310040F1A9
:100CE000000053EA4C0308BF20EADC70704792F022
:100CF000000F00F0004C02BF400010F4000F013A5A
:100D0000F9D040EA0C0093F0000F01F0004C02BF54
:100D1000490011F4000F013BF9D041EA0C018FE7C3
:100D20000CEAD15392EA0C0F18BF93EA0C0F0AD0C9
:100D300030F0004C18BF31F0004CD8D180EA0100EF
:100D400000F00040704790F0000F17BF90F0004F88
:100D5000084691F0000F91F0004F14D092EA0C0F6A
:100D600001D142020FD193EA0C0F03D14B0218BFFD
:100D7000084608D180EA010000F0004040F0FE4043
:100D800040F40000704740F0FE4040F440007047DF
:100D900080F0004002E000BF81F0004142001FBF30
:100DA0005FEA410392EA030F7FEA226C7FEA236C39
:100DB0006AD04FEA1262D2EB1363C1BFD21841402E
:100DC00048404140B8BF5B42192B88BF704710F0C4
:100DD000004F40F4000020F07F4018BF404211F067
:100DE000004F41F4000121F07F4118BF494292EACF
:100DF000030F3FD0A2F1010241FA03FC10EB0C00FB
:100E0000C3F1200301FA03F100F0004302D5494287
:100E100060EB4000B0F5000F13D3B0F1807F06D334
:100E200040084FEA310102F10102FE2A51D2B1F12C
:100E3000004F40EBC25008BF20F0010040EA030021
:100E40007047490040EB0000013A28BFB0F5000FA1
:100E5000EDD2B0FA80FCACF1080CB2EB0C0200FA57
:100E60000CF0AABF00EBC25052421843BCBFD040A6
:100E70001843704792F0000F81F4000106BF80F420
:100E800000000132013BB5E74FEA41037FEA226CE3
:100E900018BF7FEA236C21D092EA030F04D092F0AE
:100EA000000F08BF0846704790EA010F1CBF0020E2
:100EB000704712F07F4F04D1400028BF40F000403F
:100EC000704712F100723CBF00F50000704700F05F
:100ED000004343F0FE4040F4000070477FEA226286
:100EE00016BF08467FEA23630146420206BF5FEA57
:100EF000412390EA010F40F4800070474FF0000357
:100F000004E000BF10F0004348BF40425FEA000C1D
:100F100008BF704743F0964301464FF000001CE0C5
:100F200050EA010208BF70474FF000030AE000BF1B
:100F300050EA010208BF704711F0004302D5404259
:100F400061EB41015FEA010C02BF844601460020CB
:100F500043F0B64308BFA3F18053A3F50003BCFAE6
:100F60008CF2083AA3EBC25310DB01FA02FC634493
:100F700000FA02FCC2F12002BCF1004F20FA02F29A
:100F800043EB020008BF20F00100704702F120028D
:100F900001FA02FCC2F1200250EA4C0021FA02F2EE
:100FA00043EB020008BF20EADC7070474FF0FF0CF3
:100FB0001CEAD0521EBF1CEAD15392EA0C0F93EAEE
:100FC0000C0F6FD01A4480EA010C400218BF5FEA90
:100FD00041211ED04FF0006343EA501043EA511103
:100FE000A0FB01310CF00040B1F5000F3EBF4900FD
:100FF00041EAD3715B0040EA010062F17F02FD2A01
:101000001DD8B3F1004F40EBC25008BF20F00100E3
:10101000704790F0000F0CF0004C08BF49024CEAFA
:10102000502040EA51207F3AC2BFD2F1FF0340EA8C
:10103000C250704740F400004FF00003013A5DDCFD
:1010400012F1190FDCBF00F000407047C2F100023E
:10105000410021FA02F1C2F1200200FA02FC5FEA2B
:10106000310040F1000053EA4C0308BF20EADC7075
:10107000704792F0000F00F0004C02BF400010F4E7
:10108000000F013AF9D040EA0C0093F0000F01F094
:10109000004C02BF490011F4000F013BF9D041EAB6
:1010A0000C018FE70CEAD15392EA0C0F18BF93EAB8
:1010B0000C0F0AD030F0004C18BF31F0004CD8D1E2
:1010C00080EA010000F00040704790F0000F17BF69
:1010D00090F0004F084691F0000F91F0004F14D0AF
:1010E00092EA0C0F01D142020FD193EA0C0F03D107
:1010F0004B0218BF084608D180EA010000F000400A
:1011000040F0FE4040F40000704740F0FE4040F4E4
:10111000400070474FF0FF0C1CEAD0521EBF1CEA83
:10112000D15392EA0C0F93EA0C0F69D0A2EB0302A1
:1011300080EA010C49024FEA402037D04FF080533B
:1011400043EA111143EA10130CF000408B4238BF00
:101150005B0042F17D024FF4000C8B4224BF5B1A0E
:1011600040EA0C00B3EB510F24BFA3EB510340EA5C
:101170005C00B3EB910F24BFA3EB910340EA9C000A
:10118000B3EBD10F24BFA3EBD10340EADC001B017A
:1011900018BF5FEA1C1CE0D1FD2A3FF650AF8B421E
:1011A00040EBC25008BF20F0010070470CF0004C2B
:1011B0004CEA50207F32C2BFD2F1FF0340EAC25056
:1011C000704740F400004FF00003013A37E792F017
:1011D000000F00F0004C02BF400010F4000F013A75
:1011E000F9D040EA0C0093F0000F01F0004C02BF70
:1011F000490011F4000F013BF9D041EA0C0195E7D9
:101200000CEAD15392EA0C0F08D142027FF47DAF71
:1012100093EA0C0F7FF470AF084676E793EA0C0F61
:1012200004D14B023FF44CAF08466EE730F0004C5F
:1012300018BF31F0004CCAD130F000427FF45CAFEF
:1012400031F000437FF43CAF5FE700BF42000ED2B5
:10125000B2F1FE4F0BD34FF09E03B3EB126209D4F1
:101260004FEA002343F0004323FA02F070474FF0A7
:101270000000704712F1610F01D1420202D14FF01C
:10128000FF3070474FF00000704700BF80B483B05C
:1012900000AF78607B6800221A647B6800225A6481
:1012A0007B6818460C37BD4680BC704780B483B05D
:1012B00000AF786039607B681A6C7B685B6C9A421F
:1012C0000CBF01230023DBB2002B01D0002312E06E
:1012D0007B685B6C7A68D25C3B681A707B685B6C7D
:1012E00001335A4203F03F0302F03F0258BF53421A
:1012F0007A685364012318460C37BD4680BC70479A
:1013000080B485B000AF78600B46FB707B681B6CC7
:1013100001335A4203F03F0302F03F0258BF5342E9
:10132000FB607B685B6CFA689A420CBF0123002368
:10133000DBB2002B01D0002308E07B681B6C7A68CD
:10134000F978D1547B68FA681A6401231846143777
:10135000BD4680BC704700000D488546AFF3008055
:101360000C480D490D4A002302E0D458C450043300
:10137000C4188C42F9D30A4A0A4C002301E01360D6
:101380000432A242FBD300F011F8FFF713FBFEE793
:10139000005000200000002000000020041400087D
:1013A000000000209C000020FEE7000070B50F4BFD
:1013B0000F4DAB42A3EB050607D00024B61055F83D
:1013C000043B01349847A642F9D8FFF7EDFA094DDE
:1013D000094B5E1BAB424FEAA60606D0002455F827
:1013E000043B01349847A642F9D870BD00140008A8
:0C13F00000140008001400080414000899
:0413FC000A000000E3
:04140000090C0008CB
:040000050800135983
:00000001FF
